{
  "contractName": "ExpenseFactory",
  "abi": [
    {
      "anonymous": false,
      "inputs": [
        {
          "indexed": false,
          "internalType": "string",
          "name": "_purpose",
          "type": "string"
        },
        {
          "indexed": false,
          "internalType": "int256",
          "name": "_amount",
          "type": "int256"
        }
      ],
      "name": "expenseAdded",
      "type": "event"
    },
    {
      "anonymous": false,
      "inputs": [
        {
          "indexed": false,
          "internalType": "uint32",
          "name": "income",
          "type": "uint32"
        }
      ],
      "name": "incomeUpdated",
      "type": "event"
    },
    {
      "constant": true,
      "inputs": [
        {
          "internalType": "uint256",
          "name": "",
          "type": "uint256"
        }
      ],
      "name": "expenses",
      "outputs": [
        {
          "internalType": "address",
          "name": "account",
          "type": "address"
        },
        {
          "internalType": "string",
          "name": "purpose",
          "type": "string"
        },
        {
          "internalType": "int256",
          "name": "amount",
          "type": "int256"
        }
      ],
      "payable": false,
      "stateMutability": "view",
      "type": "function"
    },
    {
      "constant": false,
      "inputs": [
        {
          "internalType": "uint32",
          "name": "_income",
          "type": "uint32"
        }
      ],
      "name": "setIncome",
      "outputs": [],
      "payable": false,
      "stateMutability": "nonpayable",
      "type": "function"
    },
    {
      "constant": false,
      "inputs": [
        {
          "internalType": "string",
          "name": "_purpose",
          "type": "string"
        },
        {
          "internalType": "int256",
          "name": "_amount",
          "type": "int256"
        }
      ],
      "name": "addTransaction",
      "outputs": [],
      "payable": false,
      "stateMutability": "nonpayable",
      "type": "function"
    },
    {
      "constant": true,
      "inputs": [],
      "name": "getIncome",
      "outputs": [
        {
          "internalType": "uint32",
          "name": "",
          "type": "uint32"
        }
      ],
      "payable": false,
      "stateMutability": "view",
      "type": "function"
    },
    {
      "constant": true,
      "inputs": [],
      "name": "getExpenses",
      "outputs": [
        {
          "components": [
            {
              "internalType": "address",
              "name": "account",
              "type": "address"
            },
            {
              "internalType": "string",
              "name": "purpose",
              "type": "string"
            },
            {
              "internalType": "int256",
              "name": "amount",
              "type": "int256"
            }
          ],
          "internalType": "struct ExpenseFactory.expense[]",
          "name": "",
          "type": "tuple[]"
        }
      ],
      "payable": false,
      "stateMutability": "view",
      "type": "function"
    }
  ],
  "bytecode": "0x608060405234801561001057600080fd5b50610b08806100206000396000f3fe608060405234801561001057600080fd5b50600436106100575760003560e01c806383a36a911461005c5780639b7378491461007a578063af4afe0a14610096578063b9d9b3f5146100c8578063f247e3de146100e4575b600080fd5b610064610102565b6040516100719190610902565b60405180910390f35b610094600480360361008f91908101906106d8565b610263565b005b6100b060048036036100ab91908101906106af565b6102ce565b6040516100bf939291906108c4565b60405180910390f35b6100e260048036036100dd9190810190610657565b6103bd565b005b6100ec610510565b6040516100f99190610956565b60405180910390f35b60606001805480602002602001604051908101604052809291908181526020016000905b8282101561025a57838290600052602060002090600302016040518060600160405290816000820160009054906101000a900473ffffffffffffffffffffffffffffffffffffffff1673ffffffffffffffffffffffffffffffffffffffff1673ffffffffffffffffffffffffffffffffffffffff168152602001600182018054600181600116156101000203166002900480601f0160208091040260200160405190810160405280929190818152602001828054600181600116156101000203166002900480156102385780601f1061020d57610100808354040283529160200191610238565b820191906000526020600020905b81548152906001019060200180831161021b57829003601f168201915b5050505050815260200160028201548152505081526020019060010190610126565b50505050905090565b806000806101000a81548163ffffffff021916908363ffffffff1602179055507f306d0162dab6dd6920d74eb43535e3fe442b526aefd5e365839fc79350759f7a6000809054906101000a900463ffffffff166040516102c39190610956565b60405180910390a150565b600181815481106102db57fe5b90600052602060002090600302016000915090508060000160009054906101000a900473ffffffffffffffffffffffffffffffffffffffff1690806001018054600181600116156101000203166002900480601f0160208091040260200160405190810160405280929190818152602001828054600181600116156101000203166002900480156103ad5780601f10610382576101008083540402835291602001916103ad565b820191906000526020600020905b81548152906001019060200180831161039057829003601f168201915b5050505050908060020154905083565b600160405180606001604052803373ffffffffffffffffffffffffffffffffffffffff16815260200185858080601f016020809104026020016040519081016040528093929190818152602001838380828437600081840152601f19601f820116905080830192505050505050508152602001838152509080600181540180825580915050906001820390600052602060002090600302016000909192909190915060008201518160000160006101000a81548173ffffffffffffffffffffffffffffffffffffffff021916908373ffffffffffffffffffffffffffffffffffffffff16021790555060208201518160010190805190602001906104c2929190610529565b50604082015181600201555050507fef4a58cecf1dcf5b39a549661b28be2a915e8cd10db3597477553d31e22c3a8b83838360405161050393929190610924565b60405180910390a1505050565b60008060009054906101000a900463ffffffff16905090565b828054600181600116156101000203166002900490600052602060002090601f016020900481019282601f1061056a57805160ff1916838001178555610598565b82800160010185558215610598579182015b8281111561059757825182559160200191906001019061057c565b5b5090506105a591906105a9565b5090565b6105cb91905b808211156105c75760008160009055506001016105af565b5090565b90565b6000813590506105dd81610a80565b92915050565b60008083601f8401126105f557600080fd5b8235905067ffffffffffffffff81111561060e57600080fd5b60208301915083600182028301111561062657600080fd5b9250929050565b60008135905061063c81610a97565b92915050565b60008135905061065181610aae565b92915050565b60008060006040848603121561066c57600080fd5b600084013567ffffffffffffffff81111561068657600080fd5b610692868287016105e3565b935093505060206106a5868287016105ce565b9150509250925092565b6000602082840312156106c157600080fd5b60006106cf8482850161062d565b91505092915050565b6000602082840312156106ea57600080fd5b60006106f884828501610642565b91505092915050565b600061070d8383610865565b905092915050565b61071e816109d7565b82525050565b61072d816109d7565b82525050565b600061073e82610981565b61074881856109a4565b93508360208202850161075a85610971565b8060005b8581101561079657848403895281516107778582610701565b945061078283610997565b925060208a0199505060018101905061075e565b50829750879550505050505092915050565b6107b1816109e9565b82525050565b6107c0816109e9565b82525050565b60006107d283856109c6565b93506107df838584610a2d565b6107e883610a6f565b840190509392505050565b60006107fe8261098c565b61080881856109b5565b9350610818818560208601610a3c565b61082181610a6f565b840191505092915050565b60006108378261098c565b61084181856109c6565b9350610851818560208601610a3c565b61085a81610a6f565b840191505092915050565b600060608301600083015161087d6000860182610715565b506020830151848203602086015261089582826107f3565b91505060408301516108aa60408601826107a8565b508091505092915050565b6108be81610a1d565b82525050565b60006060820190506108d96000830186610724565b81810360208301526108eb818561082c565b90506108fa60408301846107b7565b949350505050565b6000602082019050818103600083015261091c8184610733565b905092915050565b6000604082019050818103600083015261093f8185876107c6565b905061094e60208301846107b7565b949350505050565b600060208201905061096b60008301846108b5565b92915050565b6000819050602082019050919050565b600081519050919050565b600081519050919050565b6000602082019050919050565b600082825260208201905092915050565b600082825260208201905092915050565b600082825260208201905092915050565b60006109e2826109f3565b9050919050565b6000819050919050565b600073ffffffffffffffffffffffffffffffffffffffff82169050919050565b6000819050919050565b600063ffffffff82169050919050565b82818337600083830152505050565b60005b83811015610a5a578082015181840152602081019050610a3f565b83811115610a69576000848401525b50505050565b6000601f19601f8301169050919050565b610a89816109e9565b8114610a9457600080fd5b50565b610aa081610a13565b8114610aab57600080fd5b50565b610ab781610a1d565b8114610ac257600080fd5b5056fea365627a7a723158205b5f7b7df35449efac697b5832a7a45ca5e1a6417e191ad53cf4f3b073c936ee6c6578706572696d656e74616cf564736f6c63430005100040",
  "source": "// SPDX-License-Identifier: MIT\npragma solidity >=0.4.21 <0.7.0;\npragma experimental ABIEncoderV2;\n\ncontract ExpenseFactory {\n  uint32 income ; \n  struct expense{\n    address account;\n    string purpose;\n    int amount;\n  }\n  expense[] public expenses;\n\n  //mapping (address=>expense) expenses;\n  //address[] public userAddresses;\n  event incomeUpdated(uint32 income);\n  event expenseAdded (string _purpose, int _amount);\n\n  function setIncome(uint32 _income) external{\n    income = _income;\n    emit incomeUpdated(income);\n  }\n\n  function addTransaction(string calldata _purpose, int _amount) external{\n    expenses.push(expense(msg.sender, _purpose, _amount));\n    //expenses[msg.sender] = expense(_purpose, _amount);\n   // userAddresses.push(msg.sender)-1;\n    //expenses.push(expense(_purpose, _amount)); \n    emit expenseAdded(_purpose , _amount);\n  }\n\nfunction getIncome() public view returns(uint32) {\nreturn income;\n}\n\n/* function getExpenses() public view returns(string[] memory, uint16[] memory){\n  //expense[] memory expensesCopy  =  new expense[](expenses.length);\n  string [] memory  purposeArray = new string[](expenses.length);\n  uint16 [] memory amountArray = new uint16[](expenses.length);\n\n  for (uint index = 0; index < expenses.length; index++) {\n    expense memory e = expenses[index];\n    purposeArray[index] = e.purpose;\n    amountArray[index] = e.amount;\n  }\n  return (purposeArray,amountArray);\n} */\n\nfunction getExpenses () public view returns(expense [] memory){\n/* expense [] memory expensesCopy = new expense[] (expenses.length);\nfor (int index = 0; index < expenses.length; index++) {\n\n  expensesCopy[index] = expenses[index];\n} */\n//expensesCopy = expenses;\nreturn expenses;\n}\n\n}\n",
  "sourcePath": "I:/Blockchain Internship/Project1_ExpensetrackerApp/contracts/expenseFactory.sol",
  "compiler": {
    "name": "solc",
    "version": "0.5.16+commit.9c3226ce.Emscripten.clang"
  },
  "schemaVersion": "3.4.1",
  "updatedAt": "2021-06-25T18:48:02.738Z",
  "networkType": "ethereum",
  "devdoc": {
    "methods": {}
  },
  "userdoc": {
    "methods": {}
  }
}